:020000040800F2
:100000003807002029020008E90300086B030008F4
:10001000E5030008D1020008770600080000000090
:100020000000000000000000000000000D040008B7
:10003000D502000800000000EB03000825050008B9
:10004000430200084302000843020008430200087C
:10005000430200084302000843020008430200086C
:10006000430200084302000843020008430200085C
:10007000430200084302000843020008430200084C
:10008000430200084302000843020008430200083C
:10009000430200084302000843020008430200082C
:1000A000430200084302000843020008430200081C
:1000B000430200084302000843020008430200080C
:1000C00043020008430200084302000843020008FC
:1000D000430200089105000843020008430200089B
:1000E00043020008430200084302000843020008DC
:1000F00043020008430200084302000843020008CC
:1001000043020008430200084302000843020008BB
:1001100043020008430200084302000843020008AB
:10012000430200084302000843020008430200089B
:10013000430200084302000843020008430200088B
:10014000430200084302000843020008430200087B
:10015000430200084302000843020008430200086B
:10016000430200084302000843020008430200085B
:10017000430200084302000843020008430200084B
:10018000430200084302000800F002F800F03CF8C7
:100190000AA090E8000C82448344AAF10107DA45E2
:1001A00001D100F031F8AFF2090EBAE80F0013F0F8
:1001B000010F18BFFB1A43F0010318476C0700003A
:1001C0008C070000103A24BF78C878C1FAD85207CB
:1001D00024BF30C830C144BF04680C6070470000C1
:1001E0000023002400250026103A28BF78C1FBD840
:1001F000520728BF30C148BF0B6070471FB500F0E1
:100200008DFB1FBD10B510BD00F033F81146FFF790
:10021000F5FF00F095FA00F051F803B4FFF7F2FF94
:1002200003BC00F02AFA000009488047094800474B
:10023000FEE7FEE7FEE7FEE7FEE7FEE7FEE7FEE796
:10024000FEE7FEE704480549054A064B70470000F3
:10025000290500088901000838010020380700201E
:1002600038030020380300207047704770477047FC
:100270007047754600F028F8AE46050069465346BB
:1002800020F00700854618B020B5FFF7DBFFBDE87A
:1002900020404FF000064FF000074FF000084FF0ED
:1002A000000B21F00701AC46ACE8C009ACE8C0097E
:1002B000ACE8C009ACE8C0098D4670470446AFF30E
:1002C00000802046FFF7A9FF00487047D4000020B7
:1002D00000BFFEE77047F0B50A4600210023002466
:1002E00000BF3DE0012505FA01F3156805EA0304A6
:1002F0009C4234D105684F000326BE40B5430560DB
:1003000015794E00B5400668354305601579012D15
:1003100002D01579022D16D185684F000326BE4004
:10032000B543856055794E00B54086683543856094
:10033000456801268E40B5434560456896798E40F4
:10034000B6B235434560C5684F000326BE40B5438D
:10035000C560D5794E00B540C6683543C560491CB7
:100360001029BFD3F0BD4183704700BFFEE70000F6
:100370001CB50121482000F039F840F60C600090CF
:1003800001208DF8040000208DF8060003208DF870
:10039000050001208DF8070069461048FFF79BFF14
:1003A00040F68C610D48FFF7DEFF4FF4425000909D
:1003B00001208DF8040000208DF8060003208DF840
:1003C000050001208DF8070069460548FFF783FF07
:1003D0004FF442510248FFF7C6FF1CBD001802400F
:1003E000000C024000BFFEE77047704729B1064A83
:1003F00012680243044B1A6004E0034A1268824305
:10040000014B1A607047000030380240704700000E
:100410000CB50020019000903448006840F4803012
:100420003249086000BF3148006800F40030009095
:100430000198401C0190009818B90198B0F5A04FA0
:10044000F1D12A48006800F4003010B1012000907A
:1004500001E0002000900098012846D12348403058
:10046000006840F080502149403108602048006811
:1004700040F440401E4908601C48083000681B4991
:10048000083108600846006840F4004008600846EB
:10049000006840F4A05008601648091F0860081F53
:1004A000006840F08070091F086000BF0F480068B6
:1004B00000F000700028F9D040F205700E49086085
:1004C0000A480830006820F0030008490831086035
:1004D0000846006840F00200086000BF034808308A
:1004E000006800F00C000828F8D10CBD003802406C
:1004F0000070004008544007003C0240042808D126
:100500004FF0E021096941F004014FF0E022116150
:1005100007E04FF0E021096921F004014FF0E022EB
:10052000116170477047000010B51548006840F42D
:100530007000134908601348006840F00100114939
:10054000086000200F49083108600E4800680E4915
:1005500008400C4908600D48091D0860081F006824
:1005600020F48020091F0860002006490C31086033
:10057000FFF74EFF4FF0006001498039086010BD61
:1005800088ED00E000380240FFFFF6FE1030002446
:1005900010B540F225511D4800F03EF810B31B483D
:1005A00000F064F8C4B21A48008800F40040C8B9EA
:1005B0001748008800F4804060B10A2C03D0002066
:1005C0001349088020E01248008840F40040104998
:1005D000088019E00D2C06D10D48008840F48040B9
:1005E0000B49088010E00A480088C0F30D00094953
:1005F0000C5407480088401C0549088008460088BC
:10060000C72801DD0020088010BD00000010014057
:10061000080000200C00002070B5024600240023D2
:100620000025002040F66A16B14200D100BFC1F398
:10063000421501F01F03012606FA03F3012D02D132
:100640009689334006E0022D02D1168A334001E03C
:10065000968A33400C12012606FA04F416883440B8
:1006600013B10CB1012000E0002070BD0146888864
:10067000C0F30800704700BFFEE7014600BF7047A7
:1006800010B504466FF00400FFF738FFE11704EBE4
:100690005171C1F3C701074A11701046007800EB91
:1006A0004001C1EBC0104FF6FF7101EAC0000249E2
:1006B000088010BD000000200200002070B5044634
:1006C0004FF4077094FBF0F0C6B24FF4077094FB40
:1006D000F0F100FB114085B205E04FF4077000F027
:1006E00009F8701EC6B2002EF7D115B1284600F0E9
:1006F00001F870BD0146114A12884A434FF0E023C9
:100700005A6100229A611A46126942F001021A6186
:1007100000BF4FF0E022106900F001021AB100F4AE
:100720008032002AF5D04FF0E022126922F0010257
:100730004FF0E0231A6100229A6170470200002006
:10074000FFF716FEA820FFF79BFFDDE001206F49B1
:1007500008604FF4FA70FFF7B1FF00206C49C1F850
:10076000B0024FF4FA70FFF7A9FF01206749091D95
:1007700008604FF4FA70FFF7A1FF00206449C1F848
:10078000B4024FF4FA70FFF799FF01206149086045
:100790004FF4FA70FFF792FF00205F49C1F888021A
:1007A0004FF4FA70FFF78AFF01205B49C1F88C0211
:1007B0004FF4FA70FFF782FF00205749C1F88C020E
:1007C0004FF4FA70FFF77AFF01205149C1F89C02FB
:1007D0004FF4FA70FFF772FF00204D49C1F89C02F8
:1007E0004FF4FA70FFF76AFF01204B49C1F8A402E9
:1007F0004FF4FA70FFF762FF00204749C1F8A402E6
:100800004FF4FA70FFF75AFF01204349C1F8A802DC
:100810004FF4FA70FFF752FF00203F49C1F8A802D9
:100820004FF4FA70FFF74AFF01203B49C1F8AC02D0
:100830004FF4FA70FFF742FF00203749C1F8AC02CD
:100840004FF4FA70FFF73AFF01203349C1F8A802CC
:100850004FF4FA70FFF732FF00202F49C1F8A802C9
:100860004FF4FA70FFF72AFF01202B49C1F8A402C8
:100870004FF4FA70FFF722FF00202749C1F8A402C5
:100880004FF4FA70FFF71AFF01202149C1F89C02CA
:100890004FF4FA70FFF712FF00201D49C1F89C02C7
:1008A0004FF4FA70FFF70AFF01201B49C1F88C02D0
:1008B0004FF4FA70FFF702FF00201749C1F88C02CD
:1008C0004FF4FA70FFF7FAFE01201349C1F88802CD
:1008D0004FF4FA70FFF7F2FE00200F49C1F88802CA
:1008E0004FF4FA70FFF7EAFE01200949C1F8B4029B
:1008F0004FF4FA70FFF7E2FE00200549C1F8B40298
:100900004FF4FA70FFF7DAFE20E70000B0824142B0
:100910000080414288024342000043424FF0407051
:10092000E1EE100A704700004809000800000020AE
:100930000C000000C4010008540900080C0000204D
:100940002C070000E001000800000000000000008B
:0409500000000000A3
:040000050800018965
:00000001FF
