:020000040800F2
:100000009007002029020008DD070008B505000858
:10001000D907000819030008FB0B000800000000C6
:10002000000000000000000000000000B10800080F
:100030001D030008000000006D080008510A0008B8
:10004000430200084302000843020008430200087C
:10005000430200084302000821030008C50300080A
:10006000430200084302000843020008430200085C
:10007000430200084302000843020008430200084C
:10008000430200084302000843020008430200083C
:10009000430200084302000843020008430200082C
:1000A000430200084302000843020008430200081C
:1000B00043020008BD0A000843020008430200088A
:1000C00043020008430200084302000843020008FC
:1000D00043020008150B0008430200084302000811
:1000E00043020008430200084302000843020008DC
:1000F00043020008430200084302000843020008CC
:1001000043020008430200084302000843020008BB
:1001100043020008430200084302000843020008AB
:10012000430200084302000843020008430200089B
:10013000430200084302000843020008430200088B
:10014000430200084302000843020008430200087B
:10015000430200084302000843020008430200086B
:10016000430200084302000843020008430200085B
:10017000430200084302000843020008430200084B
:10018000430200084302000800F002F800F03CF8C7
:100190000AA090E8000C82448344AAF10107DA45E2
:1001A00001D100F031F8AFF2090EBAE80F0013F0F8
:1001B000010F18BFFB1A43F0010318478C0C000015
:1001C000AC0C0000103A24BF78C878C1FAD85207A6
:1001D00024BF30C830C144BF04680C6070470000C1
:1001E0000023002400250026103A28BF78C1FBD840
:1001F000520728BF30C148BF0B6070471FB500F0E1
:100200001DFE1FBD10B510BD00F057F81146FFF7D9
:10021000F5FF00F07DFD00F075F803B4FFF7F2FF85
:1002200003BC00F0ECFC0000094880470948004787
:10023000FEE7FEE7FEE7FEE7FEE7FEE7FEE7FEE796
:10024000FEE7FEE704480549054A064B70470000F3
:10025000550A00088901000890010020900700203D
:100260009003002090030020704740EA01030246FB
:1002700030B59B0710D14FF0013400E008C208C927
:100280001D1B9D4315EAC41FF8D013F0FF0102F8AF
:10029000011B0DD01B0AF8E711F8013B002B02F8F7
:1002A000013B05D011F8013B002B02F8013BF3D1D3
:1002B00030BD7047704770477047754600F028F8AA
:1002C000AE4605006946534620F00700854618B043
:1002D00020B5FFF7B7FFBDE820404FF000064FF014
:1002E00000074FF000084FF0000B21F00701AC466B
:1002F000ACE8C009ACE8C009ACE8C009ACE8C0098A
:100300008D4670470446AFF300802046FFF785FF17
:10031000004870472C01002000BFFEE77047000036
:1003200010B5012000F0A6F8C0B10D4800680428FF
:1003300004DA0B480068401C0949086009A2002142
:10034000084600F071F90A4A0021012000F06CF91A
:10035000642000F075FC012000F086F810BD00005C
:100360002000002064656C617974696D650000008F
:10037000540000200EB50121880300F089FA002105
:10038000042000F097FA0120009000208DF804006E
:1003900008208DF8050001208DF80600684600F061
:1003A00075F806208DF8080000208DF8090002205D
:1003B0008DF80A0001208DF80B0002A800F010FA59
:1003C0000EBD000010B5022000F054F8C0B10D4879
:1003D0000068002804DD0B480068401E09490860D9
:1003E00009A20021084600F01FF90A4A0021012055
:1003F00000F01AF9642000F023FC022000F034F829
:1004000010BD00002000002064656C617974696D86
:1004100065000000540000200EB50121880300F0A3
:1004200037FA0121042000F045FA02200090002054
:100430008DF8040008208DF8050001208DF80600D5
:10044000684600F023F807208DF8080000208DF89A
:10045000090002208DF80A0001208DF80B0002A887
:1004600000F0BEF90EBD00000149086070470000B1
:10047000143C014001460020034A12680A400AB1B8
:10048000012000E000207047143C01400021234976
:100490008279002A3AD00A46126803689A430B46CA
:1004A0001A600A1D126803689A430B1D1A600279CC
:1004B00011440A6803681A430A60184A083212682D
:1004C00003689A43154B08331A601A1D12680368B3
:1004D0009A43124B0C331A604279102A0ED11A1F1C
:1004E000126803681A430D4B08331A601A1D12680C
:1004F00003681A43094B0C331A600DE0074942792F
:1005000011440A6803681A430A6005E0027911443D
:100510000A6803689A430A6070470000003C014083
:10052000F0B50A4600210023002400BF3DE001256C
:1005300005FA01F3156805EA03049C4234D1056805
:100540004F000326BE40B543056015794E00B54007
:100550000668354305601579012D02D01579022D05
:1005600016D185684F000326BE40B5438560557996
:100570004E00B540866835438560456801268E404B
:10058000B5434560456896798E40B6B235434560BF
:10059000C5684F000326BE40B543C560D5794E00FF
:1005A000B540C6683543C560491C1029BFD3F0BDAE
:1005B0004183704700BFFEE71CB50121102000F009
:1005C00057F90120009000208DF8040003208DF8D9
:1005D000050001208DF8070069460448FFF7A0FFD9
:1005E00001210248FFF7E4FF1CBD0000001002409B
:1005F0001CB50121102000F03BF9022000900020E2
:100600008DF8040003208DF8050001208DF8070007
:1006100069460448FFF784FF02210248FFF7C8FF3C
:100620001CBD00000010024070B505460E46144681
:10063000074901EBC501885D00F0ACF803E02078C4
:1006400000F0B9F8641C20780028F8DC70BD0000C8
:10065000320000201CB50121602000F009F90220C1
:10066000009001208DF8040000208DF80600032082
:100670008DF8050001208DF8070069461348FFF743
:100680004FFF02211148FFF793FF4FF440400090C5
:1006900001208DF8040000208DF8060003208DF85D
:1006A000050001208DF8070069460948FFF738FF6B
:1006B0004FF440410648FFF77BFF012005490860E1
:1006C0000549C1F8BC02054908601CBD001802407C
:1006D000001402408402434200804242B8824242F7
:1006E00010B5322000F0ACFA302000F053F80120B1
:1006F00000F0A6FA302000F04DF8012000F0A0FA3A
:100700000C2000F047F8012000F09AFA012000F0D8
:1007100041F81E2000F094FA062000F03BF810BDCE
:100720001CB50121482000F0A3F840F60C600090B1
:1007300001208DF8040000208DF8060003208DF8BC
:10074000050001208DF8070069461048FFF7E8FE14
:1007500040F68C610D48FFF72BFF4FF4425000909C
:1007600001208DF8040000208DF8060003208DF88C
:10077000050001208DF8070069460548FFF7D0FE07
:100780004FF442510248FFF713FF1CBD001802400E
:10079000000C024010B50446012000F051FAF82088
:1007A00000F0A8F804F0F00000F0A4F82107080E0B
:1007B00000F0A0F810BD10B50446012000F040FA8A
:1007C000FA2000F097F804F0F00000F093F8210709
:1007D000080E00F08FF810BD00BFFEE77047000064
:1007E00070B5002100230F22C4781CB3174C246875
:1007F00004F4E064C4F5E064C4F30721C1F1040427
:10080000E3B20A4144789C40E1B284781440214329
:100810000C07210E0E4C05786155047804F01F0575
:100820000124AC4005786D11AD0005F1E025C5F857
:10083000004109E0047804F01F050124AC40054D97
:100840000678761145F8264070BD00000CED00E0FA
:1008500000E400E080E100E002490143024A116047
:10086000704700000000FA050CED00E07047000042
:1008700029B1064A12680243044B1A6004E0034A95
:1008800012688243014B1A60704700003038024002
:1008900029B1064A12680243044B1A6004E0034A75
:1008A00012688243014B1A607047000044380240CE
:1008B0007047000030B500228B071C0F0F2303FA8E
:1008C00004F20B4B8C1053F824309343084C8D10DA
:1008D00044F8253023468C1053F824308C07240F1D
:1008E00000FA04F42343024C8D1044F8253030BD47
:1008F0000838014070B50546002418E005FA04F0F8
:1009000000F0800018B101200A49086002E00020D0
:100910000849086000200749091F0860052000F009
:10092000ABF901200449C1F8B802601CC4B2082C1C
:10093000E4DB70BDBC824242008042420CB5002024
:10094000019000903448006840F4803032490860DB
:1009500000BF3148006800F4003000900198401C4E
:100960000190009818B90198B0F5A04FF1D12A482C
:10097000006800F4003010B10120009001E0002078
:1009800000900098012846D123484030006840F08C
:1009900080502149403108602048006840F44040C0
:1009A0001E4908601C48083000681B49083108606F
:1009B0000846006840F4004008600846006840F4BB
:1009C000A05008601648091F0860081F006840F022
:1009D0008070091F086000BF0F48006800F00070B9
:1009E0000028F9D040F205700E4908600A48083026
:1009F000006820F0030008490831086008460068D4
:100A000040F00200086000BF03480830006800F0B2
:100A10000C000828F8D10CBD0038024000700040DE
:100A200008544007003C0240042808D14FF0E02160
:100A3000096941F004014FF0E022116107E04FF035
:100A4000E021096921F004014FF0E02211617047B3
:100A50007047000010B51548006840F47000134955
:100A600008601348006840F0010011490860002048
:100A70000F49083108600E4800680E4908400C49CB
:100A800008600D48091D0860081F006820F48020D8
:100A9000091F0860002006490C310860FFF74EFF6F
:100AA0004FF0006001498039086010BD88ED00E01A
:100AB00000380240FFFFF6FE1030002410B501217F
:100AC000084800F016F838B10748006808B9012056
:100AD00000E00020044908600121024800F006F807
:100AE00010BD000000040040A8024342CA43028235
:100AF000704730B50246002000230024158A05EA1D
:100B00000103958905EA010413B10CB1012000E04D
:100B1000002030BD10B540F225511D4800F03EF8D0
:100B200010B31B4800F064F8C4B21A48008800F4FF
:100B30000040C8B91748008800F4804060B10A2C12
:100B400003D000201349088020E01248008840F4B8
:100B500000401049088019E00D2C06D10D4800888E
:100B600040F480400B49088010E00A480088C0F338
:100B70000D0009490C5407480088401C05490880AD
:100B800008460088C72801DD0020088010BD00004D
:100B900000100140300000206400002070B50246C3
:100BA000002400230025002040F66A16B14200D13F
:100BB00000BFC1F3421501F01F03012606FA03F33B
:100BC000012D02D19689334006E0022D02D1168A0A
:100BD000334001E0968A33400C12012606FA04F4F1
:100BE0001688344013B10CB1012000E0002070BD24
:100BF00001468888C0F30800704700BFFEE7014641
:100C000000BF704710B504466FF00400FFF70CFFFB
:100C1000E11704EB5171C1F3C701074A1170104687
:100C2000007800EB4001C1EBC0104FF6FF7101EA04
:100C3000C0000249088010BD280000202A000020C2
:100C400070B504464FF4077094FBF0F0C6B24FF451
:100C5000077094FBF0F100FB114085B205E04FF402
:100C6000077000F02FF8701EC6B2002EF7D115B134
:100C7000284600F027F870BD0146114A12784A4311
:100C80004FF0E0235A6100229A611A46126942F03D
:100C900001021A6100BF4FF0E022106900F001026A
:100CA0001AB100F48032002AF5D04FF0E022126928
:100CB00022F001024FF0E0231A6100229A6170478E
:100CC000280000200146114A12884A434FF0E023D1
:100CD0005A6100229A611A46126942F001021A61B1
:100CE00000BF4FF0E022106900F001021AB100F4D9
:100CF0008032002AF5D04FF0E022126922F0010282
:100D00004FF0E0231A6100229A6170472A00002008
:100D10004FF4A060FFF7A0FDA820FFF773FFFFF7D7
:100D2000FFFCFFF749FCFFF763FCFFF723FBFFF72E
:100D300073FBFFF78FFCFFF7D3FC01202E490860FF
:100D40002EA13048FFF791FA2FA200210846FFF7A5
:100D50006BFC2C4A00210120FFF766FC4AE0264884
:100D6000006808B9012000E00020234908602948F4
:100D7000006805282FD2DFE800F0030B131C2500C4
:100D80006420254908601DA11E48FFF76EFA2BE07C
:100D9000C8202149086021A11A48FFF766FA23E01C
:100DA0004FF4FA701C4908601EA11648FFF75DFA5F
:100DB0001AE04FF47A70184908601CA11148FFF737
:100DC00054FA11E04FF4FA601349086019A10D4874
:100DD000FFF74BFA08E04FF47A700F49086013A14F
:100DE0000848FFF742FA00BF00BF0B49098888B2E4
:100DF000FFF726FFB3E70000AC024342303130304A
:100E0000000000005400002064656C617974696D15
:100E10006500000020000020240000203032303027
:100E2000000000003035303000000000313030303C
:100E30000000000032303030000000004FF0407001
:100E4000E1EE100A70470000680E00080000002064
:100E500054000000C4010008BC0E0008540000202B
:100E60003C070000E001000880818283848586873A
:100E7000909192939495969788898A8B8C8D8E8F7A
:100E800098999A9B9C9D9E9F000000006400000022
:100E90000000000000000000000080818283848543
:100EA0008687909192939495969788898A8B8C8D5A
:0C0EB0008E8F98999A9B9C9D9E9F00003D
:040000050800018965
:00000001FF
