:020000040800F2
:100000006007002029020008A10500084B04000831
:100010009D0500081B030008BF0B0008000000003E
:100020000000000000000000000000005D07000864
:100030001F0300080000000031060008BD0800088A
:10004000430200084302000843020008430200087C
:10005000430200084302000821030008430200088D
:10006000430200084302000843020008430200085C
:10007000430200084302000843020008430200084C
:10008000430200084302000843020008430200083C
:10009000430200084302000843020008430200082C
:1000A000430200084302000843020008430200081C
:1000B000430200082909000843020008430200081F
:1000C00043020008430200084302000843020008FC
:1000D00043020008810900084302000843020008A7
:1000E00043020008430200084302000843020008DC
:1000F00043020008430200084302000843020008CC
:1001000043020008430200084302000843020008BB
:1001100043020008430200084302000843020008AB
:10012000430200084302000843020008430200089B
:10013000430200084302000843020008430200088B
:10014000430200084302000843020008430200087B
:10015000430200084302000843020008430200086B
:10016000430200084302000843020008430200085B
:10017000430200084302000843020008430200084B
:10018000430200084302000800F002F800F03CF8C7
:100190000AA090E8000C82448344AAF10107DA45E2
:1001A00001D100F031F8AFF2090EBAE80F0013F0F8
:1001B000010F18BFFB1A43F001031847940C00000D
:1001C000B40C0000103A24BF78C878C1FAD852079E
:1001D00024BF30C830C144BF04680C6070470000C1
:1001E0000023002400250026103A28BF78C1FBD840
:1001F000520728BF30C148BF0B6070471FB500F0E1
:1002000021FE1FBD10B510BD00F050F81146FFF7DC
:10021000F5FF00F05DFD00F06EF803B4FFF7F2FFAC
:1002200003BC00F073F80000094880470948004704
:10023000FEE7FEE7FEE7FEE7FEE7FEE7FEE7FEE796
:10024000FEE7FEE704480549054A064B70470000F3
:10025000C108000889010008600100206007002033
:10026000600300206003002010B5431C02E010F87A
:10027000011B71B18107FAD14FF0013202C88C1A0B
:100280008C4314EAC211F9D0C01A0A0603D0C01E6A
:1002900010BDC01A10BD0A0401D0801E10BD090295
:1002A000FCD0401E10BD704770477047754600F087
:1002B00029F8AE4605006946534620F007008546FA
:1002C00018B020B5FFF7BEFFBDE820404FF0000694
:1002D0004FF000074FF000084FF0000B21F007012E
:1002E000AC46ACE8C009ACE8C009ACE8C009ACE871
:1002F000C0098D4670470446AFF300802046FFF7E3
:100300008CFF0000004870470001002001491820C0
:10031000ABBEFEE726000200704700BFFEE7704755
:1003200010B5012000F018F868B10748006808B956
:10033000012000E0002004490860642000F060FC17
:10034000012000F003F810BDAC02434201490860EF
:1003500070470000143C014001460020034A126827
:100360000A400AB1012000E000207047143C01401F
:10037000F0B50A4600210023002400BF3DE001251E
:1003800005FA01F3156805EA03049C4234D10568B7
:100390004F000326BE40B543056015794E00B540B9
:1003A0000668354305601579012D02D01579022DB7
:1003B00016D185684F000326BE40B5438560557948
:1003C0004E00B540866835438560456801268E40FD
:1003D000B5434560456896798E40B6B23543456071
:1003E000C5684F000326BE40B543C560D5794E00B1
:1003F000B540C6683543C560491C1029BFD3F0BD60
:10040000F0B5002300244D07ED0E02FA05F3CE10DF
:1004100000F1200555F826504E07F70E0F26BE4076
:10042000B543CF1000F1200646F82750CE1000F15A
:10043000200555F8265045EA0304CE1000F12005AA
:1004400045F82640F0BD4183704700BFFEE710B578
:10045000012000F081F8022000F0D2FB10BD000066
:1004600070B505460E461446074901EBC501885D87
:1004700000F072F803E0207800F07FF8641C207828
:100480000028F8DC70BD0000180000201CB5012118
:10049000602000F0CFF80220009001208DF80400C9
:1004A00000208DF8060003208DF8050001208DF84E
:1004B000070069461348FFF75BFF02211148FFF769
:1004C000C2FF4FF44040009001208DF8040000204E
:1004D0008DF8060003208DF8050001208DF8070037
:1004E00069460948FFF744FF4FF440410648FFF7CB
:1004F000AAFF0120054908600549C1F8BC02054969
:1005000008601CBD001802400014024084024342EF
:1005100000804242B882424210B5322000F070FBA7
:10052000302000F019F8012000F06AFB302000F0C4
:1005300013F8012000F064FB0C2000F00DF80120FE
:1005400000F05EFB012000F007F81E2000F058FBD1
:10055000062000F001F810BD10B50446012000F09F
:100560004FFBF82000F0FCF804F0F00000F0F8F881
:100570002107080E00F0F4F810BD10B50446012064
:1005800000F03EFBFA2000F0EBF804F0F00000F081
:10059000E7F82107080E00F0E3F810BD00BFFEE702
:1005A0007047000070B5002100230F22C4781CB3EF
:1005B000174C246804F4E064C4F5E064C4F3072134
:1005C000C1F10404E3B20A4144789C40E1B284786A
:1005D000144021430C07210E0E4C05786155047818
:1005E00004F01F050124AC4005786D11AD0005F144
:1005F000E025C5F8004109E0047804F01F05012456
:10060000AC40054D0678761145F8264070BD0000D7
:100610000CED00E000E400E080E100E0024901436D
:10062000024A1160704700000000FA050CED00E07E
:100630007047000029B1064A12680243044B1A6051
:1006400004E0034A12688243014B1A6070470000BD
:100650003038024029B1064A12680243044B1A603E
:1006600004E0034A12688243014B1A60704700009D
:1006700044380240F0B50021002200240225002663
:100680000223324F3F6807F00C0121B1042905D045
:10069000082937D105E02E4F076036E02D4F07605F
:1006A00033E02A4F3F1F3F68C7F38056274F3F1F55
:1006B0003F6807F03F036EB1264FB7FBF3F7DFF853
:1006C0008CC0ACF1040CDCF800C0CCF3881C07FB38
:1006D0000CF40CE01E4FB7FBF3F7DFF870C0ACF181
:1006E000040CDCF800C0CCF3881C07FB0CF4174F9B
:1006F0003F1F3F68C7F301477F1C7D00B4FBF5F740
:10070000076002E0124F076000BF00BF0F4F3F6855
:1007100007F0F0010909104F7A5C0768D74047607D
:100720000A4F3F6807F4E051890A0B4F7A5C47682B
:10073000D7408760054F3F6807F46041490B064F7B
:100740007A5C4768D740C760F0BD000008380240B7
:100750000024F40000127A00080000207047000016
:1007600070B50546002418E005FA04F000F080009A
:1007700018B101200A49086002E000200849086019
:1007800000200749091F0860052000F055FA0120E4
:100790000449C1F8B802601CC4B2082CE4DB70BD87
:1007A000BC824242008042420CB500200190009081
:1007B0003448006840F480303249086000BF314856
:1007C000006800F4003000900198401C01900098EF
:1007D00018B90198B0F5A04FF1D12A48006800F48B
:1007E000003010B10120009001E00020009000983E
:1007F000012846D123484030006840F0805021490C
:10080000403108602048006840F440401E490860BC
:100810001C48083000681B49083108600846006819
:1008200040F4004008600846006840F4A0500860AA
:100830001648091F0860081F006840F08070091FF3
:10084000086000BF0F48006800F000700028F9D071
:1008500040F205700E4908600A480830006820F030
:1008600003000849083108600846006840F00200AB
:10087000086000BF03480830006800F00C0008283A
:10088000F8D10CBD00380240007000400854400709
:10089000003C0240042808D14FF0E021096941F0F2
:1008A00004014FF0E022116107E04FF0E0210969F7
:1008B00021F004014FF0E022116170477047000001
:1008C00010B51548006840F47000134908601348DB
:1008D000006840F001001149086000200F4908310C
:1008E00008600E4800680E4908400C4908600D4831
:1008F000091D0860081F006820F48020091F086097
:10090000002006490C310860FFF74EFF4FF00060F1
:1009100001498039086010BD88ED00E000380240D0
:10092000FFFFF6FE1030002410B50121084800F04A
:1009300016F838B10748006808B9012000E0002027
:10094000044908600121024800F006F810BD0000CB
:1009500000040040A8024342CA430282704730B5F7
:100960000246002000230024158A05EA0103958928
:1009700005EA010413B10CB1012000E0002030BDF4
:1009800010B540F225511D4800F057F810B31B4830
:1009900000F00CF9C4B21A48008800F40040C8B94D
:1009A0001748008800F4804060B10A2C03D0002072
:1009B0001349088020E01248008840F400401049A4
:1009C000088019E00D2C06D10D48008840F48040C5
:1009D0000B49088010E00A480088C0F30D0009495F
:1009E0000C5407480088401C0549088008460088C8
:1009F000C72801DD0020088010BD00000010014064
:100A0000060000203800002021B1828942F4005203
:100A1000828104E082894DF6FF731A40828170471B
:100A200002460020B1F5007F00D100BF13880B40C3
:100A30000BB1012000E00020704770B50246002491
:100A400000230025002040F66A16B14200D100BF05
:100A5000C1F3421501F01F03012606FA03F3012D2D
:100A600002D19689334006E0022D02D1168A334026
:100A700001E0968A33400C12012606FA04F4168827
:100A8000344013B10CB1012000E0002070BDF0B57E
:100A90000346002400260025002040F66A17B942CC
:100AA00000D100BF1846C1F3421401F01F06012710
:100AB00007FA06F5012C01D10C3004E0022C01D11B
:100AC000103000E014301AB107682F43076002E0CD
:100AD0000768AF430760F0BD2DE9FF4705460E46A6
:100AE0000024A14600BFA046B08900B100BF2C8AF7
:100AF00024F44054F08804432C82AC8941F20C6009
:100B00008443B08831890843718908430443AC8128
:100B1000AC8A24F44074B0890443AC826846FFF781
:100B2000A9FD2048854202D01F48854202D1DDF848
:100B30000C9001E0DDF80890A88900F4004040B175
:100B400009EBC90000EB091031684900B0FBF1F76F
:100B500007E009EBC90000EB091031688900B0FB20
:100B6000F1F76420B7FBF0F004012009642101FBD8
:100B70001078A88900F4004040B1322000EBC80092
:100B8000B0FBF1F000F00700044308E0322000EB76
:100B900008106421B0FBF1F000F00F0004432C8139
:100BA000BDE8FF870010014000140140014688881D
:100BB000C0F308007047C1F308028280704700BF8D
:100BC000FEE7000010B504466FF00400FFF762FE78
:100BD000E11704EB5171C1F3C701074A11701046C8
:100BE000007800EB4001C1EBC0104FF6FF7101EA45
:100BF000C0000249088010BD000000200200002053
:100C000070B504464FF4077094FBF0F0C6B24FF491
:100C1000077094FBF0F100FB114085B205E04FF442
:100C2000077000F02FF8701EC6B2002EF7D115B174
:100C3000284600F027F870BD0146114A12784A4351
:100C40004FF0E0235A6100229A611A46126942F07D
:100C500001021A6100BF4FF0E022106900F00102AA
:100C60001AB100F48032002AF5D04FF0E022126968
:100C700022F001024FF0E0231A6100229A617047CE
:100C8000000000200146114A12884A434FF0E02339
:100C90005A6100229A611A46126942F001021A61F1
:100CA00000BF4FF0E022106900F001021AB100F419
:100CB0008032002AF5D04FF0E022126922F00102C2
:100CC0004FF0E0231A6100229A6170470200002071
:100CD0001CB525A103C9CDE900016846FFF7C4FA98
:100CE000064600254FF4A060FFF798FCA820FFF708
:100CF00069FFFFF7CBFBFFF70FFC4FF4E13000F08B
:100D00003FF82FE04FF47A70FFF77AFF1848008819
:100D100098B100240CE01DF804101648FFF74BFFB3
:100D200000BF80211348FFF77BFE0128F9D1641C26
:100D3000B442F0DB00200E4908800F480088B04222
:100D400010D1E8B20D4A0021FFF78AFB6D1C00208C
:100D500009490880052D02D10025FFF778FB012005
:100D600003490880CEE7000048656C6C6F210000E5
:100D70000400002000100140060000203800002080
:100D800010B588B0044601210846FFF753FC012145
:100D90001020FFF75FFC072209212848FFF730FBEE
:100DA00007220A212548FFF72BFB4FF4007006901D
:100DB00002208DF81C008DF81D0000208DF81E000B
:100DC00006A91E48FFF7D4FA4FF48060069002206F
:100DD0008DF81C008DF81D0001208DF81F0006A95C
:100DE0001648FFF7C5FA02940020ADF80C00ADF8E4
:100DF0000E00ADF81000ADF814000C20ADF8120094
:100E000002A90F48FFF768FE01210D48FFF7FCFD1E
:100E1000012240F225510A48FFF739FE25208DF8BE
:100E2000040001208DF805008DF806008DF80700FC
:100E300001A8FFF7B7FB08B010BD0000000002409A
:100E4000001001404FF04070E1EE100A70470000C2
:100E5000700E00080000002038000000C4010008E7
:100E6000A80E00083800002028070000E001000854
:100E70000000000001000000000000000102030467
:100E8000010203040607080980818283848586871E
:100E9000909192939495969788898A8B8C8D8E8F5A
:080EA00098999A9B9C9D9E9F6E
:040000050800018965
:00000001FF
